{
  "_format": "hh-sol-artifact-1",
  "contractName": "SipScore",
  "sourceName": "contracts/SipScore.sol",
  "abi": [
    {
      "inputs": [],
      "stateMutability": "nonpayable",
      "type": "constructor"
    },
    {
      "anonymous": false,
      "inputs": [
        {
          "indexed": true,
          "internalType": "address",
          "name": "owner",
          "type": "address"
        },
        {
          "indexed": true,
          "internalType": "address",
          "name": "approved",
          "type": "address"
        },
        {
          "indexed": true,
          "internalType": "uint256",
          "name": "tokenId",
          "type": "uint256"
        }
      ],
      "name": "Approval",
      "type": "event"
    },
    {
      "anonymous": false,
      "inputs": [
        {
          "indexed": true,
          "internalType": "address",
          "name": "owner",
          "type": "address"
        },
        {
          "indexed": true,
          "internalType": "address",
          "name": "operator",
          "type": "address"
        },
        {
          "indexed": false,
          "internalType": "bool",
          "name": "approved",
          "type": "bool"
        }
      ],
      "name": "ApprovalForAll",
      "type": "event"
    },
    {
      "anonymous": false,
      "inputs": [
        {
          "indexed": true,
          "internalType": "address",
          "name": "previousOwner",
          "type": "address"
        },
        {
          "indexed": true,
          "internalType": "address",
          "name": "newOwner",
          "type": "address"
        }
      ],
      "name": "OwnershipTransferred",
      "type": "event"
    },
    {
      "anonymous": false,
      "inputs": [
        {
          "indexed": true,
          "internalType": "address",
          "name": "from",
          "type": "address"
        },
        {
          "indexed": true,
          "internalType": "address",
          "name": "to",
          "type": "address"
        },
        {
          "indexed": true,
          "internalType": "uint256",
          "name": "tokenId",
          "type": "uint256"
        }
      ],
      "name": "Transfer",
      "type": "event"
    },
    {
      "inputs": [
        {
          "internalType": "address",
          "name": "to",
          "type": "address"
        },
        {
          "internalType": "uint256",
          "name": "tokenId",
          "type": "uint256"
        }
      ],
      "name": "approve",
      "outputs": [],
      "stateMutability": "nonpayable",
      "type": "function"
    },
    {
      "inputs": [
        {
          "internalType": "address",
          "name": "owner",
          "type": "address"
        }
      ],
      "name": "balanceOf",
      "outputs": [
        {
          "internalType": "uint256",
          "name": "",
          "type": "uint256"
        }
      ],
      "stateMutability": "view",
      "type": "function"
    },
    {
      "inputs": [
        {
          "internalType": "uint256",
          "name": "tokenId",
          "type": "uint256"
        }
      ],
      "name": "getApproved",
      "outputs": [
        {
          "internalType": "address",
          "name": "",
          "type": "address"
        }
      ],
      "stateMutability": "view",
      "type": "function"
    },
    {
      "inputs": [
        {
          "internalType": "uint256",
          "name": "tokenId",
          "type": "uint256"
        }
      ],
      "name": "getBalance",
      "outputs": [
        {
          "internalType": "uint256",
          "name": "",
          "type": "uint256"
        }
      ],
      "stateMutability": "view",
      "type": "function"
    },
    {
      "inputs": [
        {
          "internalType": "address",
          "name": "owner",
          "type": "address"
        },
        {
          "internalType": "address",
          "name": "operator",
          "type": "address"
        }
      ],
      "name": "isApprovedForAll",
      "outputs": [
        {
          "internalType": "bool",
          "name": "",
          "type": "bool"
        }
      ],
      "stateMutability": "view",
      "type": "function"
    },
    {
      "inputs": [
        {
          "internalType": "address",
          "name": "recipient",
          "type": "address"
        }
      ],
      "name": "mintNFT",
      "outputs": [],
      "stateMutability": "nonpayable",
      "type": "function"
    },
    {
      "inputs": [],
      "name": "name",
      "outputs": [
        {
          "internalType": "string",
          "name": "",
          "type": "string"
        }
      ],
      "stateMutability": "view",
      "type": "function"
    },
    {
      "inputs": [],
      "name": "owner",
      "outputs": [
        {
          "internalType": "address",
          "name": "",
          "type": "address"
        }
      ],
      "stateMutability": "view",
      "type": "function"
    },
    {
      "inputs": [
        {
          "internalType": "uint256",
          "name": "tokenId",
          "type": "uint256"
        }
      ],
      "name": "ownerOf",
      "outputs": [
        {
          "internalType": "address",
          "name": "",
          "type": "address"
        }
      ],
      "stateMutability": "view",
      "type": "function"
    },
    {
      "inputs": [
        {
          "internalType": "uint256",
          "name": "tokenId",
          "type": "uint256"
        },
        {
          "internalType": "uint256",
          "name": "points",
          "type": "uint256"
        }
      ],
      "name": "redeem",
      "outputs": [],
      "stateMutability": "nonpayable",
      "type": "function"
    },
    {
      "inputs": [],
      "name": "renounceOwnership",
      "outputs": [],
      "stateMutability": "nonpayable",
      "type": "function"
    },
    {
      "inputs": [
        {
          "internalType": "address",
          "name": "from",
          "type": "address"
        },
        {
          "internalType": "address",
          "name": "to",
          "type": "address"
        },
        {
          "internalType": "uint256",
          "name": "tokenId",
          "type": "uint256"
        }
      ],
      "name": "safeTransferFrom",
      "outputs": [],
      "stateMutability": "nonpayable",
      "type": "function"
    },
    {
      "inputs": [
        {
          "internalType": "address",
          "name": "from",
          "type": "address"
        },
        {
          "internalType": "address",
          "name": "to",
          "type": "address"
        },
        {
          "internalType": "uint256",
          "name": "tokenId",
          "type": "uint256"
        },
        {
          "internalType": "bytes",
          "name": "data",
          "type": "bytes"
        }
      ],
      "name": "safeTransferFrom",
      "outputs": [],
      "stateMutability": "nonpayable",
      "type": "function"
    },
    {
      "inputs": [
        {
          "internalType": "address",
          "name": "operator",
          "type": "address"
        },
        {
          "internalType": "bool",
          "name": "approved",
          "type": "bool"
        }
      ],
      "name": "setApprovalForAll",
      "outputs": [],
      "stateMutability": "nonpayable",
      "type": "function"
    },
    {
      "inputs": [
        {
          "internalType": "bytes4",
          "name": "interfaceId",
          "type": "bytes4"
        }
      ],
      "name": "supportsInterface",
      "outputs": [
        {
          "internalType": "bool",
          "name": "",
          "type": "bool"
        }
      ],
      "stateMutability": "view",
      "type": "function"
    },
    {
      "inputs": [],
      "name": "symbol",
      "outputs": [
        {
          "internalType": "string",
          "name": "",
          "type": "string"
        }
      ],
      "stateMutability": "view",
      "type": "function"
    },
    {
      "inputs": [
        {
          "internalType": "uint256",
          "name": "tokenId",
          "type": "uint256"
        }
      ],
      "name": "tokenURI",
      "outputs": [
        {
          "internalType": "string",
          "name": "",
          "type": "string"
        }
      ],
      "stateMutability": "view",
      "type": "function"
    },
    {
      "inputs": [
        {
          "internalType": "address",
          "name": "from",
          "type": "address"
        },
        {
          "internalType": "address",
          "name": "to",
          "type": "address"
        },
        {
          "internalType": "uint256",
          "name": "tokenId",
          "type": "uint256"
        }
      ],
      "name": "transferFrom",
      "outputs": [],
      "stateMutability": "nonpayable",
      "type": "function"
    },
    {
      "inputs": [
        {
          "internalType": "address",
          "name": "newOwner",
          "type": "address"
        }
      ],
      "name": "transferOwnership",
      "outputs": [],
      "stateMutability": "nonpayable",
      "type": "function"
    },
    {
      "inputs": [
        {
          "internalType": "uint256",
          "name": "tokenId",
          "type": "uint256"
        },
        {
          "internalType": "uint256",
          "name": "points",
          "type": "uint256"
        }
      ],
      "name": "updateBalance",
      "outputs": [],
      "stateMutability": "nonpayable",
      "type": "function"
    }
  ],
  "bytecode": "0x60806040523480156200001157600080fd5b506040518060400160405280600881526020017f53697053636f72650000000000000000000000000000000000000000000000008152506040518060400160405280600281526020017f535300000000000000000000000000000000000000000000000000000000000081525081600090816200008f919062000412565b508060019081620000a1919062000412565b505050620000c4620000b8620000ca60201b60201c565b620000d260201b60201c565b620004f9565b600033905090565b6000600660009054906101000a900473ffffffffffffffffffffffffffffffffffffffff16905081600660006101000a81548173ffffffffffffffffffffffffffffffffffffffff021916908373ffffffffffffffffffffffffffffffffffffffff1602179055508173ffffffffffffffffffffffffffffffffffffffff168173ffffffffffffffffffffffffffffffffffffffff167f8be0079c531659141344cd1fd0a4f28419497f9722a3daafe3b4186f6b6457e060405160405180910390a35050565b600081519050919050565b7f4e487b7100000000000000000000000000000000000000000000000000000000600052604160045260246000fd5b7f4e487b7100000000000000000000000000000000000000000000000000000000600052602260045260246000fd5b600060028204905060018216806200021a57607f821691505b60208210810362000230576200022f620001d2565b5b50919050565b60008190508160005260206000209050919050565b60006020601f8301049050919050565b600082821b905092915050565b6000600883026200029a7fffffffffffffffffffffffffffffffffffffffffffffffffffffffffffffffff826200025b565b620002a686836200025b565b95508019841693508086168417925050509392505050565b6000819050919050565b6000819050919050565b6000620002f3620002ed620002e784620002be565b620002c8565b620002be565b9050919050565b6000819050919050565b6200030f83620002d2565b620003276200031e82620002fa565b84845462000268565b825550505050565b600090565b6200033e6200032f565b6200034b81848462000304565b505050565b5b8181101562000373576200036760008262000334565b60018101905062000351565b5050565b601f821115620003c2576200038c8162000236565b62000397846200024b565b81016020851015620003a7578190505b620003bf620003b6856200024b565b83018262000350565b50505b505050565b600082821c905092915050565b6000620003e760001984600802620003c7565b1980831691505092915050565b6000620004028383620003d4565b9150826002028217905092915050565b6200041d8262000198565b67ffffffffffffffff811115620004395762000438620001a3565b5b62000445825462000201565b6200045282828562000377565b600060209050601f8311600181146200048a576000841562000475578287015190505b620004818582620003f4565b865550620004f1565b601f1984166200049a8662000236565b60005b82811015620004c4578489015182556001820191506020850194506020810190506200049d565b86831015620004e45784890151620004e0601f891682620003d4565b8355505b6001600288020188555050505b505050505050565b612c8b80620005096000396000f3fe608060405234801561001057600080fd5b506004361061012c5760003560e01c806370a08231116100ad578063a22cb46511610071578063a22cb4651461032d578063b88d4fde14610349578063c87b56dd14610365578063e985e9c514610395578063f2fde38b146103c55761012c565b806370a082311461029b578063715018a6146102cb5780637cbc2373146102d55780638da5cb5b146102f157806395d89b411461030f5761012c565b806323b872dd116100f457806323b872dd146101fb57806342842e0e1461021757806354ba0f271461023357806358453fef1461024f5780636352211e1461026b5761012c565b806301ffc9a71461013157806306fdde0314610161578063081812fc1461017f578063095ea7b3146101af5780631e010439146101cb575b600080fd5b61014b60048036038101906101469190611c92565b6103e1565b6040516101589190611cda565b60405180910390f35b6101696104c3565b6040516101769190611d85565b60405180910390f35b61019960048036038101906101949190611ddd565b610555565b6040516101a69190611e4b565b60405180910390f35b6101c960048036038101906101c49190611e92565b61059b565b005b6101e560048036038101906101e09190611ddd565b6106b2565b6040516101f29190611ee1565b60405180910390f35b61021560048036038101906102109190611efc565b610717565b005b610231600480360381019061022c9190611efc565b610777565b005b61024d60048036038101906102489190611f4f565b610797565b005b61026960048036038101906102649190611f7c565b6107c6565b005b61028560048036038101906102809190611ddd565b610844565b6040516102929190611e4b565b60405180910390f35b6102b560048036038101906102b09190611f4f565b6108ca565b6040516102c29190611ee1565b60405180910390f35b6102d3610981565b005b6102ef60048036038101906102ea9190611f7c565b610995565b005b6102f9610a61565b6040516103069190611e4b565b60405180910390f35b610317610a8b565b6040516103249190611d85565b60405180910390f35b61034760048036038101906103429190611fe8565b610b1d565b005b610363600480360381019061035e919061215d565b610b33565b005b61037f600480360381019061037a9190611ddd565b610b95565b60405161038c9190611d85565b60405180910390f35b6103af60048036038101906103aa91906121e0565b610bfd565b6040516103bc9190611cda565b60405180910390f35b6103df60048036038101906103da9190611f4f565b610c91565b005b60007f80ac58cd000000000000000000000000000000000000000000000000000000007bffffffffffffffffffffffffffffffffffffffffffffffffffffffff1916827bffffffffffffffffffffffffffffffffffffffffffffffffffffffff191614806104ac57507f5b5e139f000000000000000000000000000000000000000000000000000000007bffffffffffffffffffffffffffffffffffffffffffffffffffffffff1916827bffffffffffffffffffffffffffffffffffffffffffffffffffffffff1916145b806104bc57506104bb82610d14565b5b9050919050565b6060600080546104d29061224f565b80601f01602080910402602001604051908101604052809291908181526020018280546104fe9061224f565b801561054b5780601f106105205761010080835404028352916020019161054b565b820191906000526020600020905b81548152906001019060200180831161052e57829003601f168201915b5050505050905090565b600061056082610d7e565b6004600083815260200190815260200160002060009054906101000a900473ffffffffffffffffffffffffffffffffffffffff169050919050565b60006105a682610844565b90508073ffffffffffffffffffffffffffffffffffffffff168373ffffffffffffffffffffffffffffffffffffffff1603610616576040517f08c379a000000000000000000000000000000000000000000000000000000000815260040161060d906122f2565b60405180910390fd5b8073ffffffffffffffffffffffffffffffffffffffff16610635610dc9565b73ffffffffffffffffffffffffffffffffffffffff16148061066457506106638161065e610dc9565b610bfd565b5b6106a3576040517f08c379a000000000000000000000000000000000000000000000000000000000815260040161069a90612384565b60405180910390fd5b6106ad8383610dd1565b505050565b60006106bd82610e8a565b6106fc576040517f08c379a00000000000000000000000000000000000000000000000000000000081526004016106f3906123f0565b60405180910390fd5b60086000838152602001908152602001600020549050919050565b610728610722610dc9565b82610ecb565b610767576040517f08c379a000000000000000000000000000000000000000000000000000000000815260040161075e90612482565b60405180910390fd5b610772838383610f60565b505050565b61079283838360405180602001604052806000815250610b33565b505050565b61079f611259565b6107ab816007546112d7565b600760008154809291906107be906124d1565b919050555050565b6107ce611259565b6107d782610e8a565b610816576040517f08c379a000000000000000000000000000000000000000000000000000000000815260040161080d906123f0565b60405180910390fd5b806008600084815260200190815260200160002060008282546108399190612519565b925050819055505050565b600080610850836112f5565b9050600073ffffffffffffffffffffffffffffffffffffffff168173ffffffffffffffffffffffffffffffffffffffff16036108c1576040517f08c379a00000000000000000000000000000000000000000000000000000000081526004016108b890612599565b60405180910390fd5b80915050919050565b60008073ffffffffffffffffffffffffffffffffffffffff168273ffffffffffffffffffffffffffffffffffffffff160361093a576040517f08c379a00000000000000000000000000000000000000000000000000000000081526004016109319061262b565b60405180910390fd5b600360008373ffffffffffffffffffffffffffffffffffffffff1673ffffffffffffffffffffffffffffffffffffffff168152602001908152602001600020549050919050565b610989611259565b6109936000611332565b565b61099e82610e8a565b6109dd576040517f08c379a00000000000000000000000000000000000000000000000000000000081526004016109d4906123f0565b60405180910390fd5b8060086000848152602001908152602001600020541015610a33576040517f08c379a0000000000000000000000000000000000000000000000000000000008152600401610a2a90612697565b60405180910390fd5b80600860008481526020019081526020016000206000828254610a5691906126b7565b925050819055505050565b6000600660009054906101000a900473ffffffffffffffffffffffffffffffffffffffff16905090565b606060018054610a9a9061224f565b80601f0160208091040260200160405190810160405280929190818152602001828054610ac69061224f565b8015610b135780601f10610ae857610100808354040283529160200191610b13565b820191906000526020600020905b815481529060010190602001808311610af657829003601f168201915b5050505050905090565b610b2f610b28610dc9565b83836113f8565b5050565b610b44610b3e610dc9565b83610ecb565b610b83576040517f08c379a0000000000000000000000000000000000000000000000000000000008152600401610b7a90612482565b60405180910390fd5b610b8f84848484611564565b50505050565b6060610ba082610d7e565b6000610baa6115c0565b90506000815111610bca5760405180602001604052806000815250610bf5565b80610bd4846115d7565b604051602001610be5929190612727565b6040516020818303038152906040525b915050919050565b6000600560008473ffffffffffffffffffffffffffffffffffffffff1673ffffffffffffffffffffffffffffffffffffffff16815260200190815260200160002060008373ffffffffffffffffffffffffffffffffffffffff1673ffffffffffffffffffffffffffffffffffffffff16815260200190815260200160002060009054906101000a900460ff16905092915050565b610c99611259565b600073ffffffffffffffffffffffffffffffffffffffff168173ffffffffffffffffffffffffffffffffffffffff1603610d08576040517f08c379a0000000000000000000000000000000000000000000000000000000008152600401610cff906127bd565b60405180910390fd5b610d1181611332565b50565b60007f01ffc9a7000000000000000000000000000000000000000000000000000000007bffffffffffffffffffffffffffffffffffffffffffffffffffffffff1916827bffffffffffffffffffffffffffffffffffffffffffffffffffffffff1916149050919050565b610d8781610e8a565b610dc6576040517f08c379a0000000000000000000000000000000000000000000000000000000008152600401610dbd90612599565b60405180910390fd5b50565b600033905090565b816004600083815260200190815260200160002060006101000a81548173ffffffffffffffffffffffffffffffffffffffff021916908373ffffffffffffffffffffffffffffffffffffffff160217905550808273ffffffffffffffffffffffffffffffffffffffff16610e4483610844565b73ffffffffffffffffffffffffffffffffffffffff167f8c5be1e5ebec7d5bd14f71427d1e84f3dd0314c0f7b2291e5b200ac8c7c3b92560405160405180910390a45050565b60008073ffffffffffffffffffffffffffffffffffffffff16610eac836112f5565b73ffffffffffffffffffffffffffffffffffffffff1614159050919050565b600080610ed783610844565b90508073ffffffffffffffffffffffffffffffffffffffff168473ffffffffffffffffffffffffffffffffffffffff161480610f195750610f188185610bfd565b5b80610f5757508373ffffffffffffffffffffffffffffffffffffffff16610f3f84610555565b73ffffffffffffffffffffffffffffffffffffffff16145b91505092915050565b8273ffffffffffffffffffffffffffffffffffffffff16610f8082610844565b73ffffffffffffffffffffffffffffffffffffffff1614610fd6576040517f08c379a0000000000000000000000000000000000000000000000000000000008152600401610fcd9061284f565b60405180910390fd5b600073ffffffffffffffffffffffffffffffffffffffff168273ffffffffffffffffffffffffffffffffffffffff1603611045576040517f08c379a000000000000000000000000000000000000000000000000000000000815260040161103c906128e1565b60405180910390fd5b61105283838360016116a5565b8273ffffffffffffffffffffffffffffffffffffffff1661107282610844565b73ffffffffffffffffffffffffffffffffffffffff16146110c8576040517f08c379a00000000000000000000000000000000000000000000000000000000081526004016110bf9061284f565b60405180910390fd5b6004600082815260200190815260200160002060006101000a81549073ffffffffffffffffffffffffffffffffffffffff02191690556001600360008573ffffffffffffffffffffffffffffffffffffffff1673ffffffffffffffffffffffffffffffffffffffff168152602001908152602001600020600082825403925050819055506001600360008473ffffffffffffffffffffffffffffffffffffffff1673ffffffffffffffffffffffffffffffffffffffff16815260200190815260200160002060008282540192505081905550816002600083815260200190815260200160002060006101000a81548173ffffffffffffffffffffffffffffffffffffffff021916908373ffffffffffffffffffffffffffffffffffffffff160217905550808273ffffffffffffffffffffffffffffffffffffffff168473ffffffffffffffffffffffffffffffffffffffff167fddf252ad1be2c89b69c2b068fc378daa952ba7f163c4a11628f55a4df523b3ef60405160405180910390a461125483838360016116ab565b505050565b611261610dc9565b73ffffffffffffffffffffffffffffffffffffffff1661127f610a61565b73ffffffffffffffffffffffffffffffffffffffff16146112d5576040517f08c379a00000000000000000000000000000000000000000000000000000000081526004016112cc9061294d565b60405180910390fd5b565b6112f18282604051806020016040528060008152506116b1565b5050565b60006002600083815260200190815260200160002060009054906101000a900473ffffffffffffffffffffffffffffffffffffffff169050919050565b6000600660009054906101000a900473ffffffffffffffffffffffffffffffffffffffff16905081600660006101000a81548173ffffffffffffffffffffffffffffffffffffffff021916908373ffffffffffffffffffffffffffffffffffffffff1602179055508173ffffffffffffffffffffffffffffffffffffffff168173ffffffffffffffffffffffffffffffffffffffff167f8be0079c531659141344cd1fd0a4f28419497f9722a3daafe3b4186f6b6457e060405160405180910390a35050565b8173ffffffffffffffffffffffffffffffffffffffff168373ffffffffffffffffffffffffffffffffffffffff1603611466576040517f08c379a000000000000000000000000000000000000000000000000000000000815260040161145d906129b9565b60405180910390fd5b80600560008573ffffffffffffffffffffffffffffffffffffffff1673ffffffffffffffffffffffffffffffffffffffff16815260200190815260200160002060008473ffffffffffffffffffffffffffffffffffffffff1673ffffffffffffffffffffffffffffffffffffffff16815260200190815260200160002060006101000a81548160ff0219169083151502179055508173ffffffffffffffffffffffffffffffffffffffff168373ffffffffffffffffffffffffffffffffffffffff167f17307eab39ab6107e8899845ad3d59bd9653f200f220920489ca2b5937696c31836040516115579190611cda565b60405180910390a3505050565b61156f848484610f60565b61157b8484848461170c565b6115ba576040517f08c379a00000000000000000000000000000000000000000000000000000000081526004016115b190612a4b565b60405180910390fd5b50505050565b606060405180602001604052806000815250905090565b6060600060016115e684611893565b01905060008167ffffffffffffffff81111561160557611604612032565b5b6040519080825280601f01601f1916602001820160405280156116375781602001600182028036833780820191505090505b509050600082602001820190505b60011561169a578080600190039150507f3031323334353637383961626364656600000000000000000000000000000000600a86061a8153600a858161168e5761168d612a6b565b5b04945060008503611645575b819350505050919050565b50505050565b50505050565b6116bb83836119e6565b6116c8600084848461170c565b611707576040517f08c379a00000000000000000000000000000000000000000000000000000000081526004016116fe90612a4b565b60405180910390fd5b505050565b600061172d8473ffffffffffffffffffffffffffffffffffffffff16611c03565b15611886578373ffffffffffffffffffffffffffffffffffffffff1663150b7a02611756610dc9565b8786866040518563ffffffff1660e01b81526004016117789493929190612aef565b6020604051808303816000875af19250505080156117b457506040513d601f19601f820116820180604052508101906117b19190612b50565b60015b611836573d80600081146117e4576040519150601f19603f3d011682016040523d82523d6000602084013e6117e9565b606091505b50600081510361182e576040517f08c379a000000000000000000000000000000000000000000000000000000000815260040161182590612a4b565b60405180910390fd5b805181602001fd5b63150b7a0260e01b7bffffffffffffffffffffffffffffffffffffffffffffffffffffffff1916817bffffffffffffffffffffffffffffffffffffffffffffffffffffffff19161491505061188b565b600190505b949350505050565b600080600090507a184f03e93ff9f4daa797ed6e38ed64bf6a1f01000000000000000083106118f1577a184f03e93ff9f4daa797ed6e38ed64bf6a1f01000000000000000083816118e7576118e6612a6b565b5b0492506040810190505b6d04ee2d6d415b85acef8100000000831061192e576d04ee2d6d415b85acef8100000000838161192457611923612a6b565b5b0492506020810190505b662386f26fc10000831061195d57662386f26fc10000838161195357611952612a6b565b5b0492506010810190505b6305f5e1008310611986576305f5e100838161197c5761197b612a6b565b5b0492506008810190505b61271083106119ab5761271083816119a1576119a0612a6b565b5b0492506004810190505b606483106119ce57606483816119c4576119c3612a6b565b5b0492506002810190505b600a83106119dd576001810190505b80915050919050565b600073ffffffffffffffffffffffffffffffffffffffff168273ffffffffffffffffffffffffffffffffffffffff1603611a55576040517f08c379a0000000000000000000000000000000000000000000000000000000008152600401611a4c90612bc9565b60405180910390fd5b611a5e81610e8a565b15611a9e576040517f08c379a0000000000000000000000000000000000000000000000000000000008152600401611a9590612c35565b60405180910390fd5b611aac6000838360016116a5565b611ab581610e8a565b15611af5576040517f08c379a0000000000000000000000000000000000000000000000000000000008152600401611aec90612c35565b60405180910390fd5b6001600360008473ffffffffffffffffffffffffffffffffffffffff1673ffffffffffffffffffffffffffffffffffffffff16815260200190815260200160002060008282540192505081905550816002600083815260200190815260200160002060006101000a81548173ffffffffffffffffffffffffffffffffffffffff021916908373ffffffffffffffffffffffffffffffffffffffff160217905550808273ffffffffffffffffffffffffffffffffffffffff16600073ffffffffffffffffffffffffffffffffffffffff167fddf252ad1be2c89b69c2b068fc378daa952ba7f163c4a11628f55a4df523b3ef60405160405180910390a4611bff6000838360016116ab565b5050565b6000808273ffffffffffffffffffffffffffffffffffffffff163b119050919050565b6000604051905090565b600080fd5b600080fd5b60007fffffffff0000000000000000000000000000000000000000000000000000000082169050919050565b611c6f81611c3a565b8114611c7a57600080fd5b50565b600081359050611c8c81611c66565b92915050565b600060208284031215611ca857611ca7611c30565b5b6000611cb684828501611c7d565b91505092915050565b60008115159050919050565b611cd481611cbf565b82525050565b6000602082019050611cef6000830184611ccb565b92915050565b600081519050919050565b600082825260208201905092915050565b60005b83811015611d2f578082015181840152602081019050611d14565b60008484015250505050565b6000601f19601f8301169050919050565b6000611d5782611cf5565b611d618185611d00565b9350611d71818560208601611d11565b611d7a81611d3b565b840191505092915050565b60006020820190508181036000830152611d9f8184611d4c565b905092915050565b6000819050919050565b611dba81611da7565b8114611dc557600080fd5b50565b600081359050611dd781611db1565b92915050565b600060208284031215611df357611df2611c30565b5b6000611e0184828501611dc8565b91505092915050565b600073ffffffffffffffffffffffffffffffffffffffff82169050919050565b6000611e3582611e0a565b9050919050565b611e4581611e2a565b82525050565b6000602082019050611e606000830184611e3c565b92915050565b611e6f81611e2a565b8114611e7a57600080fd5b50565b600081359050611e8c81611e66565b92915050565b60008060408385031215611ea957611ea8611c30565b5b6000611eb785828601611e7d565b9250506020611ec885828601611dc8565b9150509250929050565b611edb81611da7565b82525050565b6000602082019050611ef66000830184611ed2565b92915050565b600080600060608486031215611f1557611f14611c30565b5b6000611f2386828701611e7d565b9350506020611f3486828701611e7d565b9250506040611f4586828701611dc8565b9150509250925092565b600060208284031215611f6557611f64611c30565b5b6000611f7384828501611e7d565b91505092915050565b60008060408385031215611f9357611f92611c30565b5b6000611fa185828601611dc8565b9250506020611fb285828601611dc8565b9150509250929050565b611fc581611cbf565b8114611fd057600080fd5b50565b600081359050611fe281611fbc565b92915050565b60008060408385031215611fff57611ffe611c30565b5b600061200d85828601611e7d565b925050602061201e85828601611fd3565b9150509250929050565b600080fd5b600080fd5b7f4e487b7100000000000000000000000000000000000000000000000000000000600052604160045260246000fd5b61206a82611d3b565b810181811067ffffffffffffffff8211171561208957612088612032565b5b80604052505050565b600061209c611c26565b90506120a88282612061565b919050565b600067ffffffffffffffff8211156120c8576120c7612032565b5b6120d182611d3b565b9050602081019050919050565b82818337600083830152505050565b60006121006120fb846120ad565b612092565b90508281526020810184848401111561211c5761211b61202d565b5b6121278482856120de565b509392505050565b600082601f83011261214457612143612028565b5b81356121548482602086016120ed565b91505092915050565b6000806000806080858703121561217757612176611c30565b5b600061218587828801611e7d565b945050602061219687828801611e7d565b93505060406121a787828801611dc8565b925050606085013567ffffffffffffffff8111156121c8576121c7611c35565b5b6121d48782880161212f565b91505092959194509250565b600080604083850312156121f7576121f6611c30565b5b600061220585828601611e7d565b925050602061221685828601611e7d565b9150509250929050565b7f4e487b7100000000000000000000000000000000000000000000000000000000600052602260045260246000fd5b6000600282049050600182168061226757607f821691505b60208210810361227a57612279612220565b5b50919050565b7f4552433732313a20617070726f76616c20746f2063757272656e74206f776e6560008201527f7200000000000000000000000000000000000000000000000000000000000000602082015250565b60006122dc602183611d00565b91506122e782612280565b604082019050919050565b6000602082019050818103600083015261230b816122cf565b9050919050565b7f4552433732313a20617070726f76652063616c6c6572206973206e6f7420746f60008201527f6b656e206f776e6572206f7220617070726f76656420666f7220616c6c000000602082015250565b600061236e603d83611d00565b915061237982612312565b604082019050919050565b6000602082019050818103600083015261239d81612361565b9050919050565b7f546f6b656e20494420646f6573206e6f74206578697374000000000000000000600082015250565b60006123da601783611d00565b91506123e5826123a4565b602082019050919050565b60006020820190508181036000830152612409816123cd565b9050919050565b7f4552433732313a2063616c6c6572206973206e6f7420746f6b656e206f776e6560008201527f72206f7220617070726f76656400000000000000000000000000000000000000602082015250565b600061246c602d83611d00565b915061247782612410565b604082019050919050565b6000602082019050818103600083015261249b8161245f565b9050919050565b7f4e487b7100000000000000000000000000000000000000000000000000000000600052601160045260246000fd5b60006124dc82611da7565b91507fffffffffffffffffffffffffffffffffffffffffffffffffffffffffffffffff820361250e5761250d6124a2565b5b600182019050919050565b600061252482611da7565b915061252f83611da7565b9250828201905080821115612547576125466124a2565b5b92915050565b7f4552433732313a20696e76616c696420746f6b656e2049440000000000000000600082015250565b6000612583601883611d00565b915061258e8261254d565b602082019050919050565b600060208201905081810360008301526125b281612576565b9050919050565b7f4552433732313a2061646472657373207a65726f206973206e6f74206120766160008201527f6c6964206f776e65720000000000000000000000000000000000000000000000602082015250565b6000612615602983611d00565b9150612620826125b9565b604082019050919050565b6000602082019050818103600083015261264481612608565b9050919050565b7f4e6f7420656e6f75676820706f696e7473000000000000000000000000000000600082015250565b6000612681601183611d00565b915061268c8261264b565b602082019050919050565b600060208201905081810360008301526126b081612674565b9050919050565b60006126c282611da7565b91506126cd83611da7565b92508282039050818111156126e5576126e46124a2565b5b92915050565b600081905092915050565b600061270182611cf5565b61270b81856126eb565b935061271b818560208601611d11565b80840191505092915050565b600061273382856126f6565b915061273f82846126f6565b91508190509392505050565b7f4f776e61626c653a206e6577206f776e657220697320746865207a65726f206160008201527f6464726573730000000000000000000000000000000000000000000000000000602082015250565b60006127a7602683611d00565b91506127b28261274b565b604082019050919050565b600060208201905081810360008301526127d68161279a565b9050919050565b7f4552433732313a207472616e736665722066726f6d20696e636f72726563742060008201527f6f776e6572000000000000000000000000000000000000000000000000000000602082015250565b6000612839602583611d00565b9150612844826127dd565b604082019050919050565b600060208201905081810360008301526128688161282c565b9050919050565b7f4552433732313a207472616e7366657220746f20746865207a65726f2061646460008201527f7265737300000000000000000000000000000000000000000000000000000000602082015250565b60006128cb602483611d00565b91506128d68261286f565b604082019050919050565b600060208201905081810360008301526128fa816128be565b9050919050565b7f4f776e61626c653a2063616c6c6572206973206e6f7420746865206f776e6572600082015250565b6000612937602083611d00565b915061294282612901565b602082019050919050565b600060208201905081810360008301526129668161292a565b9050919050565b7f4552433732313a20617070726f766520746f2063616c6c657200000000000000600082015250565b60006129a3601983611d00565b91506129ae8261296d565b602082019050919050565b600060208201905081810360008301526129d281612996565b9050919050565b7f4552433732313a207472616e7366657220746f206e6f6e20455243373231526560008201527f63656976657220696d706c656d656e7465720000000000000000000000000000602082015250565b6000612a35603283611d00565b9150612a40826129d9565b604082019050919050565b60006020820190508181036000830152612a6481612a28565b9050919050565b7f4e487b7100000000000000000000000000000000000000000000000000000000600052601260045260246000fd5b600081519050919050565b600082825260208201905092915050565b6000612ac182612a9a565b612acb8185612aa5565b9350612adb818560208601611d11565b612ae481611d3b565b840191505092915050565b6000608082019050612b046000830187611e3c565b612b116020830186611e3c565b612b1e6040830185611ed2565b8181036060830152612b308184612ab6565b905095945050505050565b600081519050612b4a81611c66565b92915050565b600060208284031215612b6657612b65611c30565b5b6000612b7484828501612b3b565b91505092915050565b7f4552433732313a206d696e7420746f20746865207a65726f2061646472657373600082015250565b6000612bb3602083611d00565b9150612bbe82612b7d565b602082019050919050565b60006020820190508181036000830152612be281612ba6565b9050919050565b7f4552433732313a20746f6b656e20616c7265616479206d696e74656400000000600082015250565b6000612c1f601c83611d00565b9150612c2a82612be9565b602082019050919050565b60006020820190508181036000830152612c4e81612c12565b905091905056fea2646970667358221220665f91c859d77c8a1ebb2edfbf33176263daa74f5b52bb9d6109d1e6de2b487864736f6c63430008110033",
  "linkReferences": {},
  "deployedLinkReferences": {}
}